:1000000012C02CC02BC02AC029C028C027C026C0BF
:1000100025C024C023C022C021C020C01FC01EC0D4
:100020001DC01CC01BC011241FBECFE5D4E0DEBF25
:10003000CDBF10E0A0E6B0E0EEEEF2E002C0059029
:100040000D92A23BB107D9F710E0A2EBB0E001C0DE
:100050001D92A63CB107E1F7D9D047C1D1CFE82F17
:10006000F0E0DF01AC58BF4F9C91E05AFF4FE081B8
:10007000E23019F4E8E3F0E009C0E33019F4E5E315
:10008000F0E004C0E43011F4E2E3F0E0662329F488
:10009000808190958923808308958081892B808336
:1000A00008958EEF87BB8FEF84BB81BB81E088BB57
:1000B00015BA12BA0895DF92EF92FF920F931F9331
:1000C000D82E162F66956695EE24FF24E3946E25B0
:1000D00061708CE0C4DF612F66956E2561708DE0E4
:1000E000BEDF1E251170612F8EE0B9DF01E910E03F
:1000F0000D0D111D61E0F8018081B1DF80ED97E009
:100100000197F1F760E0F8018081A9DF61E08CE000
:10011000A6DF61E08DE0A3DF61E08EE0A0DF1F914C
:100120000F91FF90EF90DF900895AF92BF92DF9212
:10013000EF92FF920F931F93CF93DF9380918800EC
:100140008823C1F0DD24AA24BB2403EB10E0C801FE
:10015000E02EF92EE501F801EC0FFD1F60818C2FD8
:10016000AADF2196C031D105B1F7D39480918800E0
:10017000D81680F3DF91CF911F910F91FF90EF90F0
:10018000DF90BF90AF900895E3EBF0E023EC30E018
:100190001192E217F307E1F7089520E030E063EBF6
:1001A00070E041EA50E0DB01A20FB31FFA01E20F59
:1001B000F31F80818C932F5F3F4F2031310599F7DA
:1001C00008958091C500803110F01092C500809193
:1001D000C500E3EBF0E0282F30E0D901AF56BF4F68
:1001E0002E1B3F0B43EC50E0C9018E0F9F1F409721
:1001F0002CF450968C915097808302C08C91808310
:1002000031961196E417F50779F70895CF92DF92AA
:10021000EF92FF920F931F93CF93DF9342DF1092E1
:10022000C3001092C5001092C4001092B200C6E341
:10023000D0E0FF24F3940AE10F2EF4E1CF2EF02D4D
:1002400015E00F2EFAE0EF2EF02D0F2EFEE1DF2E3F
:10025000F02D8091B200882371F4888180FD0BC05D
:10026000F092B2008091C3008F5F8093C300802F13
:100270008A95F1F705C0888180FF02C01092B20014
:100280008091C3008230B1F0833028F4882351F08C
:100290008130E9F40BC08430A9F0843078F08530E7
:1002A000B1F414C01093880078DF11C0D092880098
:1002B00088DF0DC0C092880084DF09C0E09288000A
:1002C00080DF05C0109388007CDF01C05DDF2DDF7B
:1002D0008091C5008F5F8093C5008091C3008630F8
:0E02E00008F4B7CF1092C300B4CFF894FFCF4C
:1002EE0002020202020203030303030304040404D2
:1002FE000404040420100804020120100804020162
:10030E0080402010080402010A00020406050103C1
:10031E0007090A0B00010203040807061312111045
:10032E000F0206040405010103030101050404067E
:02033E000200BB
:00000001FF
